{
  "contractName": "Faucet",
  "abi": [
    {
      "inputs": [],
      "stateMutability": "nonpayable",
      "type": "constructor"
    },
    {
      "inputs": [
        {
          "internalType": "uint256",
          "name": "",
          "type": "uint256"
        }
      ],
      "name": "funders",
      "outputs": [
        {
          "internalType": "address",
          "name": "",
          "type": "address"
        }
      ],
      "stateMutability": "view",
      "type": "function",
      "constant": true
    },
    {
      "inputs": [],
      "name": "numOfFunders",
      "outputs": [
        {
          "internalType": "uint256",
          "name": "",
          "type": "uint256"
        }
      ],
      "stateMutability": "view",
      "type": "function",
      "constant": true
    },
    {
      "inputs": [],
      "name": "owner",
      "outputs": [
        {
          "internalType": "address",
          "name": "",
          "type": "address"
        }
      ],
      "stateMutability": "view",
      "type": "function",
      "constant": true
    },
    {
      "stateMutability": "payable",
      "type": "receive",
      "payable": true
    },
    {
      "inputs": [],
      "name": "emitLog",
      "outputs": [
        {
          "internalType": "bytes32",
          "name": "",
          "type": "bytes32"
        }
      ],
      "stateMutability": "pure",
      "type": "function",
      "constant": true
    },
    {
      "inputs": [],
      "name": "addFunds",
      "outputs": [],
      "stateMutability": "payable",
      "type": "function",
      "payable": true
    },
    {
      "inputs": [
        {
          "internalType": "uint256",
          "name": "amount",
          "type": "uint256"
        }
      ],
      "name": "withdraw",
      "outputs": [],
      "stateMutability": "nonpayable",
      "type": "function"
    },
    {
      "inputs": [],
      "name": "getAllFunders",
      "outputs": [
        {
          "internalType": "address[]",
          "name": "",
          "type": "address[]"
        }
      ],
      "stateMutability": "view",
      "type": "function",
      "constant": true
    },
    {
      "inputs": [
        {
          "internalType": "uint8",
          "name": "index",
          "type": "uint8"
        }
      ],
      "name": "getFunderAtIndex",
      "outputs": [
        {
          "internalType": "address",
          "name": "",
          "type": "address"
        }
      ],
      "stateMutability": "view",
      "type": "function",
      "constant": true
    }
  ],
  "bytecode": "0x608060405234801561001057600080fd5b50336000806101000a81548173ffffffffffffffffffffffffffffffffffffffff021916908373ffffffffffffffffffffffffffffffffffffffff160217905550336000806101000a81548173ffffffffffffffffffffffffffffffffffffffff021916908373ffffffffffffffffffffffffffffffffffffffff16021790555061089f806100a06000396000f3fe60806040526004361061007f5760003560e01c8063a26759cb1161004e578063a26759cb14610147578063af7f2c9b14610151578063dc0d3dff1461017c578063f42c13bf146101b957610086565b80630a93cf331461008b5780632e1a7d4d146100c85780636fbbb55d146100f15780638da5cb5b1461011c57610086565b3661008657005b600080fd5b34801561009757600080fd5b506100b260048036038101906100ad91906104ed565b6101e4565b6040516100bf919061055b565b60405180910390f35b3480156100d457600080fd5b506100ef60048036038101906100ea91906105ac565b610224565b005b3480156100fd57600080fd5b506101066102c0565b6040516101139190610697565b60405180910390f35b34801561012857600080fd5b506101316103ba565b60405161013e919061055b565b60405180910390f35b61014f6103de565b005b34801561015d57600080fd5b5061016661044e565b60405161017391906106c8565b60405180910390f35b34801561018857600080fd5b506101a3600480360381019061019e91906105ac565b610454565b6040516101b0919061055b565b60405180910390f35b3480156101c557600080fd5b506101ce610487565b6040516101db91906106fc565b60405180910390f35b6000600260008360ff16815260200190815260200160002060009054906101000a900473ffffffffffffffffffffffffffffffffffffffff169050919050565b806c01431e0fae6d7217caa0000000811115610275576040517f08c379a000000000000000000000000000000000000000000000000000000000815260040161026c90610774565b60405180910390fd5b3373ffffffffffffffffffffffffffffffffffffffff166108fc839081150290604051600060405180830381858888f193505050501580156102bb573d6000803e3d6000fd5b505050565b6060600060015467ffffffffffffffff8111156102e0576102df610794565b5b60405190808252806020026020018201604052801561030e5781602001602082028036833780820191505090505b50905060005b6001548110156103b2576002600082815260200190815260200160002060009054906101000a900473ffffffffffffffffffffffffffffffffffffffff16828281518110610365576103646107c3565b5b602002602001019073ffffffffffffffffffffffffffffffffffffffff16908173ffffffffffffffffffffffffffffffffffffffff168152505080806103aa90610821565b915050610314565b508091505090565b60008054906101000a900473ffffffffffffffffffffffffffffffffffffffff1681565b6000600160008154809291906103f390610821565b919050559050336002600083815260200190815260200160002060006101000a81548173ffffffffffffffffffffffffffffffffffffffff021916908373ffffffffffffffffffffffffffffffffffffffff16021790555050565b60015481565b60026020528060005260406000206000915054906101000a900473ffffffffffffffffffffffffffffffffffffffff1681565b60007f68656c6c6f000000000000000000000000000000000000000000000000000000905090565b600080fd5b600060ff82169050919050565b6104ca816104b4565b81146104d557600080fd5b50565b6000813590506104e7816104c1565b92915050565b600060208284031215610503576105026104af565b5b6000610511848285016104d8565b91505092915050565b600073ffffffffffffffffffffffffffffffffffffffff82169050919050565b60006105458261051a565b9050919050565b6105558161053a565b82525050565b6000602082019050610570600083018461054c565b92915050565b6000819050919050565b61058981610576565b811461059457600080fd5b50565b6000813590506105a681610580565b92915050565b6000602082840312156105c2576105c16104af565b5b60006105d084828501610597565b91505092915050565b600081519050919050565b600082825260208201905092915050565b6000819050602082019050919050565b61060e8161053a565b82525050565b60006106208383610605565b60208301905092915050565b6000602082019050919050565b6000610644826105d9565b61064e81856105e4565b9350610659836105f5565b8060005b8381101561068a5781516106718882610614565b975061067c8361062c565b92505060018101905061065d565b5085935050505092915050565b600060208201905081810360008301526106b18184610639565b905092915050565b6106c281610576565b82525050565b60006020820190506106dd60008301846106b9565b92915050565b6000819050919050565b6106f6816106e3565b82525050565b600060208201905061071160008301846106ed565b92915050565b600082825260208201905092915050565b7f43616e6e6f74207769746864726177206d6f7265207468616e20582045544800600082015250565b600061075e601f83610717565b915061076982610728565b602082019050919050565b6000602082019050818103600083015261078d81610751565b9050919050565b7f4e487b7100000000000000000000000000000000000000000000000000000000600052604160045260246000fd5b7f4e487b7100000000000000000000000000000000000000000000000000000000600052603260045260246000fd5b7f4e487b7100000000000000000000000000000000000000000000000000000000600052601160045260246000fd5b600061082c82610576565b91507fffffffffffffffffffffffffffffffffffffffffffffffffffffffffffffffff820361085e5761085d6107f2565b5b60018201905091905056fea2646970667358221220c7dd87245a916e04282a2e77353d8babac40beff01822348d6fb1e993ee8943064736f6c634300080e0033",
  "immutableReferences": {},
  "source": "// SPDX-License-Identifier: MIT\r\npragma solidity >=0.4.22 <0.9.0;\r\n\r\nimport \"./Owned.sol\";\r\nimport \"./Logger.sol\";\r\nimport \"./IFaucet.sol\";\r\n\r\ncontract Faucet is Owned, Logger, IFaucet {\r\n    uint256 public numOfFunders;\r\n    mapping(uint256 => address) public funders;\r\n\r\n    constructor() {\r\n        owner = msg.sender;\r\n    }\r\n\r\n    modifier limitWithdraw(uint256 amount) {\r\n        require(\r\n            amount <= 100000000000000000000000000000,\r\n            \"Cannot withdraw more than X ETH\"\r\n        );\r\n        _; // execute le body de la mthode suivante\r\n    }\r\n\r\n    receive() external payable {}\r\n\r\n    function emitLog() public pure override returns (bytes32) {\r\n        return \"hello\";\r\n    }\r\n\r\n    function addFunds() external payable override {\r\n        uint256 index = numOfFunders++;\r\n        funders[index] = msg.sender;\r\n    }\r\n\r\n    function withdraw(uint256 amount) external override limitWithdraw(amount) {\r\n        payable(msg.sender).transfer(amount);\r\n    }\r\n\r\n    function getAllFunders() external view returns (address[] memory) {\r\n        address[] memory _funders = new address[](numOfFunders);\r\n\r\n        for (uint256 i = 0; i < numOfFunders; i++) {\r\n            _funders[i] = funders[i];\r\n        }\r\n\r\n        return _funders;\r\n    }\r\n\r\n    function getFunderAtIndex(uint8 index) external view returns (address) {\r\n        return funders[index];\r\n    }\r\n\r\n    // const instance = await Faucet.deployed()\r\n    // instance.addFunds({from: accounts[0], value: \"2\"})\r\n}\r\n",
  "sourcePath": "C:\\Users\\rbrauge\\Documents\\MonProjet\\react-web3\\faucet\\contracts\\FaucetContract.sol",
  "compiler": {
    "name": "solc",
    "version": "0.8.14+commit.80d49f37.Emscripten.clang"
  },
  "schemaVersion": "3.4.2",
  "updatedAt": "2022-06-15T14:33:33.981Z",
  "networkType": "ethereum",
  "devdoc": {
    "kind": "dev",
    "methods": {},
    "version": 1
  },
  "userdoc": {
    "kind": "user",
    "methods": {},
    "version": 1
  }
}